S01300002E2F44656275672F766572312E733139F0
S315200000000248854600F04AF8FEE7C04600C00120B7
S3152000001080B500AF044B044A126818210A431A60BF
S31520000020C046BD4680BDC04600380240B0B500AFD0
S31520000030164B1B68180001F0B5F8154B1B68180005
S3152000004000F0A8FA134B1B681B68180001F0AAF8E9
S315200000500F4B1B68180000F09DFA0F4B1B681B689E
S31520000060180001F09FF80A4B1B68180000F092FA5E
S31520000070064B1B681C6A054B186801235A4201234C
S315200000805B421900A047C046BD46B0BD081C0020F3
S3152000009028150020001C0020041C002080B582B0FA
S315200000A000AFFFF7B5FF00F093FA01F00DF900F06D
S315200000B033FC00F05DFCFFF7B9FF00237B600BE00B
S315200000C0094B1868094B1968094B1B681A0001F07F
S315200000D02BF87B6801337B607B680A2BF0DD0023DD
S315200000E01800BD4602B080BD001C0020041C002064
S315200000F0081C002080B582B000AF0200FB1D1A70DC
S315200001000749074B1B7DDAB2FB1D1B781343DBB275
S3152000011004221343DBB20B75C046BD4602B080BD38
S315200001200010024080B582B000AF0200FB1D1A709D
S315200001300A4A0A4B1B7DDBB2D8B2FB1D1B78DB4378
S31520000140D9B2031C0B40DBB2191C04230B43DBB2D0
S31520000150DBB21375C046BD4602B080BD001002401A
S3152000016080B500AFC04600F061F90300DBB25BB298
S31520000170002BF8DB082000F0F3F9012000F00AF943
S31520000180022000F007FAC046BD4680BD80B582B089
S3152000019000AF0200FB1D1A70C04600F047F90300AD
S315200001A0DBB25BB2002BF8DB082000F0D9F9FB1D8F
S315200001B01B78022B0CD002DC012B05D014E0032B7C
S315200001C00AD0042B0CD00FE0FB1D00221A700BE086
S315200001D0FB1D08221A7007E0FB1D04221A7003E09B
S315200001E0FB1D0C221A70C046FB1D1B7830221343C0
S315200001F0DBB2180000F0CEF8272000F0B1F9C04697
S31520000200BD4602B080BDC04680B582B000AF0200B8
S31520000210FB1D1A70C04600F009F90300DBB25BB281
S31520000220002BF8DB082000F09BF9FB1D1B78082B20
S3152000023024D89A00194BD3181B689F46FB1D002211
S315200002401A701BE0FB1D04221A7017E0FB1D022208
S315200002501A7013E0FB1D06221A700FE0FB1D012207
S315200002601A700BE0FB1D03221A7007E0FB1D052206
S315200002701A7003E0FB1D07221A70C046FB1D1B786F
S3152000028008221343DBB2180000F084F8272000F080
S3152000029067F9C046BD4602B080BDC0460C1C002092
S315200002A080B582B000AF0200FB1D1A70C04600F078
S315200002B0BDF80300DBB25BB2002BF8DB082000F0B0
S315200002C04FF9FB1D1B78022B0CD002DC012B05D02D
S315200002D014E0032B0AD0042B0CD00FE0FB1D0022C8
S315200002E01A700BE0FB1D02221A7007E0FB1D01228B
S315200002F01A7003E0FB1D03221A70C046FB1D1B78F3
S3152000030004221343DBB2180000F044F8272000F043
S3152000031027F9C046BD4602B080BDC04680B584B030
S3152000032000AF786039607B68013BFB603B68022B3D
S3152000033002D1FB684033FB60FB68DBB21A1C8023CA
S315200003405B421343DBB2DBB2180000F023F8C04651
S31520000350BD4604B080BDC04680B582B000AF020065
S31520000360FB1D1A70C04600F061F80300DBB25BB2D9
S31520000370002BF8DB082000F0F3F8FB1D1B78180093
S3152000038000F026F82B2000F0EBF8C046BD4602B060
S3152000039080BDC04680B582B000AF0200FB1D1A703A
S315200003A0C04600F043F80300DBB25BB2002BF8DB5B
S315200003B00120FFF7B7FE0220FFF7B4FEFB1D1B78D6
S315200003C0180000F01BF8C046BD4602B080BDC046EE
S315200003D080B582B000AF0200FB1D1A700120FFF726
S315200003E089FE0220FFF79EFEFB1D1B78180000F0F9
S315200003F005F8C046BD4602B080BDC04680B582B075
S3152000040000AF0200FB1D1A704020FFF773FE064A5C
S31520000410FB1D1B78537500F07DF84020FFF782FE08
S31520000420C046BD4602B080BD0010024090B583B0E4
S3152000043000AF0B4B0B4A1A600120FFF773FE022018
S31520000440FFF758FEFC1D00F031F803002370044B23
S31520000450054A1A60FB1D1B781800BD4603B090BDE7
S3152000046000100240555500005555555590B583B09E
S3152000047000AF0B4B0B4A1A600120FFF73BFE022010
S31520000480FFF738FEFC1D00F011F803002370044B23
S31520000490054A1A60FB1D1B781800BD4603B090BDA7
S315200004A000100240555500005555555580B582B06F
S315200004B000AF4020FFF71EFE00F02CF800F02AF8CF
S315200004C0064AFB1D527C1A704020FFF72BFEFB1DAF
S315200004D01B781800BD4602B080BDC0460010024001
S315200004E080B500AF0120FFF71DFE0220FFF71AFEA0
S315200004F00420FFF789FE0220FFF748FEFFF730FEB3
S315200005000420FFF747FF0220FFF744FFC046BD4601
S3152000051080BDC04680B500AF0B4B00221A600A4B47
S3152000052029225A60084B00229A60074B05221A603E
S31520000530C046054B1B68002BFBD0034B00221A60DC
S31520000540C046BD4680BDC04610E000E080B500AF85
S31520000550FFF7E0FFFFF7DEFFC046BD4680BDC04681
S3152000056080B584B000AF78600023FB600AE0FFF717
S31520000570D1FFFFF7CFFFFFF7CDFFFFF7CBFFFB68DC
S315200005800133FB60FA687B689A42F0D3C046BD46C9
S3152000059004B080BD80B584B000AF78600CE0002345
S315200005A0FB6005E00120FFF7DBFFFB680133FB6002
S315200005B0FB68064A9342F5DD7B685A1E7A60002B5B
S315200005C0EDD1C046BD4604B080BDC046E70300005D
S315200005D080B500AF024B034A1A60C046BD4680BDB7
S315200005E0001002405555555580B584B000AF020025
S315200005F0FB1D1A70124A0F23FB18127D1A700F2347
S31520000600FB180F22BA18127804218A431A70FB1D90
S315200006101B781A1C04239A431300DAB20F23FB1803
S315200006201B781343DAB20F23FB181A70044A0F23E0
S31520000630FB181B781375C046BD4604B080BDC04666
S315200006400010024080B584B000AF0200FB1D1A7076
S31520000650114A0F23FB18127D1A700F23FB180F2245
S31520000660BA18127804218A431A70FB1D1B78DB43C3
S31520000670D9B20F23FB181A780B1C1340DAB20F23BA
S31520000680FB181A70044A0F23FB181B781375C046F3
S31520000690BD4604B080BDC0460010024080B582B081
S315200006A000AF0200FB1D1A70FB1D1B78082B0CD017
S315200006B002DC002B05D01AE0102B0DD0182B12D0FF
S315200006C015E01820FFF7BEFF11E01020FFF7BAFF54
S315200006D00820FFF789FF0AE00820FFF7B3FF102064
S315200006E0FFF782FF03E01820FFF77EFFC046C046D3
S315200006F0BD4602B080BDC04680B582B000AF402066
S31520000700FFF7A0FF154B164A1A600120FFF79AFF44
S315200007100220FFF769FFFFF719FF4020FFF764FF6C
S31520000720FFF714FF0D4B5B7CDAB2FB1D7F218A435A
S315200007301A704020FFF786FFFFF708FFFB1D1B7886
S31520000740002B00D0E9E7C0464020FFF74DFF034BC2
S31520000750044A1A60C046BD4602B080BD0010024061
S31520000760555500005555555580B584B000AF02004B
S31520000770FB1D1A704020FFF765FF1C4B1C4A1A60B0
S315200007800320FFF731FF0220FFF72EFFFB1D1B780A
S315200007901800FFF783FFFFF7D9FE4020FFF724FF5D
S315200007A0FFF7D4FE114A0F23FB18527C1A700F4B09
S315200007B0104A1A60FB1D1B780822134004D008201B
S315200007C0FFF76CFFFFF798FFFB1D1B7810221340E5
S315200007D004D01020FFF762FFFFF78EFF0F23FB18D0
S315200007E01B781800BD4604B080BDC04600100240EC
S315200007F0555500005555555580B582B000AF0200BD
S31520000800FB1D1A70FB1D1B781800FFF7ADFFFB1DA3
S315200008101B781800FFF7A8FF03001800BD4602B09A
S3152000082080BDC04680B582B000AF0200FB1D1A70A5
S31520000830BB1D0A1C1A70154AFB1D1B785375BB1D60
S315200008401B781800FFF72AFFFFF780FE4020FFF7EE
S31520000850CBFEFFF77BFE4020FFF7F4FEBB1D1B7887
S315200008600822134004D00820FFF718FFFFF744FFA3
S31520000870BB1D1B781022134004D01020FFF70EFF5B
S31520000880FFF73AFFC046BD4602B080BD00100240C9
S3152000089080B582B000AF0200FB1D1A70BB1D0A1C7A
S315200008A01A704020FFF7CEFEBB1D1B781800FFF7FD
S315200008B0F5FE0120FFF798FE0220FFF7C3FEBB1DC1
S315200008C01A78FB1D1B7811001800FFF7ABFFC046F6
S315200008D0BD4602B080BDC04680B582B000AF0200E2
S315200008E0FB1D1A70BB1D0A1C1A704020FFF7AAFEBA
S315200008F0BB1D1B781800FFF7D1FE0320FFF7A2FED1
S31520000900BB1D1A78FB1D1B7811001800FFF78AFF04
S31520000910C046BD4602B080BD80B500AF4020FFF77F
S3152000092063FE0A20FFF71CFE7820FFF78BFE0A20C5
S31520000930FFF716FE2020FFF757FE18213E20FFF76F
S31520000940CBFF18213F20FFF7C7FF1821C020FFF754
S31520000950C3FF18214020FFF7BFFF1821B820FFF75B
S31520000960BBFF0020FFF79AFEC046BD4680BDC046AD
S3152000097080B582B000AFFB1D00221A7023E0FB1D5C
S315200009801B78482252421343DBB218211800FFF786
S31520000990A3FF18214020FFF79FFFBB1D00221A70DE
S315200009A008E018210020FFF773FFBB1D1A78BB1D36
S315200009B001321A70BB1D1B783F2BF2D9FB1D1A780A
S315200009C0FB1D01321A70FB1D1B78072BD7D9C04699
S315200009D0BD4602B080BDC04690B587B000AF0400CA
S315200009E008001100FB1D221C1A70BB1D021C1A7068
S315200009F07B1D0A1C1A70FB1D1B78002B00D1C9E039
S31520000A00BB1D1B78002B00D1C4E0FB1D1B78802B5F
S31520000A1000D9BFE0BB1D1B78402B00D9BAE0BB1D17
S31520000A201B78013B002B00DA0733DB103B61BB1D33
S31520000A301B78013B594A134004D5013B08225242F8
S31520000A4013430133072B2CD89A00554BD3181B6818
S31520000A509F461723FB1801221A7022E01723FB1842
S31520000A6002221A701DE01723FB1804221A7018E0C0
S31520000A701723FB1808221A7013E01723FB181022DD
S31520000A801A700EE01723FB1820221A7009E017238C
S31520000A90FB1840221A7004E01723FB1880221A70D4
S31520000AA0C0467B1D1B78002B06D11723FB18172267
S31520000AB0BA181278D2431A70FB1D1B78402B09D91D
S31520000AC01623FB1810221A70FB1DFA1D1278413AC4
S31520000AD01A7008E01623FB1808221A70FB1DFA1D4F
S31520000AE01278013A1A70FB1D1B7840221343DAB2A2
S31520000AF01623FB181B7819001000FFF7EDFE3B6943
S31520000B00DBB2482252421343DAB21623FB181B7873
S31520000B1019001000FFF7E0FE0F23FC181623FB1820
S31520000B201B781800FFF768FE03002370FB1D1B7857
S31520000B3040221343DAB21623FB181B781900100043
S31520000B40FFF7CAFE7B1D1B78002B0AD01723FB1844
S31520000B501722B9180F22BA18097812780A431A7080
S31520000B6009E01723FB181722BA180F2179181278D3
S31520000B7009780A401A701623FB181A781723FB18CF
S31520000B801B7811001800FFF783FE18213F20FFF77E
S31520000B90A3FE00E0C046BD4607B090BD070000801A
S31520000BA0301C002080B584B000AF78603960012108
S31520000BB00120FFF7B3FB7B68FB6006E0FB685A1C4D
S31520000BC0FA601B781800FFF7C7FBFB681B78002B21
S31520000BD0F4D102210120FFF7A1FB3B68FB6006E070
S31520000BE0FB685A1CFA601B781800FFF7B5FBFB68F8
S31520000BF01B78002BF4D1C046BD4604B080BDC0464C
S31520000C0080B58CB000AF786039602F23FB187A68E6
S31520000C1012791A702E23FB183A6812791A701C233F
S31520000C20FB1853221A701C23FB1863225A701C23AC
S31520000C30FB186F229A701C23FB187222DA701C2371
S31520000C40FB1865221A711C23FB1820225A711C23BB
S31520000C50FB186C229A711C23FB186522DA711C235F
S31520000C60FB1866221A721C23FB1874225A721C2344
S31520000C70FB1820229A721C23FB186922DA721C2385
S31520000C80FB1873221A731C23FB183A225A731C234F
S31520000C90FB1820229A731C23FB182022DA731C23AC
S31520000CA0FB182F22BA1812781A741C23FB1800225C
S31520000CB05A740823FB1853221A700823FB18632240
S31520000CC05A700823FB186F229A700823FB18722289
S31520000CD0DA700823FB1865221A710823FB182022D4
S31520000CE05A710823FB1872229A710823FB1869226D
S31520000CF0DA710823FB1867221A720823FB18682268
S31520000D005A720823FB1874229A720823FB18202291
S31520000D10DA720823FB1869221A730823FB18732238
S31520000D205A730823FB183A229A730823FB182022A9
S31520000D30DA730823FB182E22BA1812781A7408239D
S31520000D40FB1800225A740823FA181C23FB181100DA
S31520000D501800FFF727FFC046BD460CB080BDC04631
S31520000D6080B584B000AF78600A00FB1C1A707B68DF
S31520000D70DB68FB60FB1C1B78002B05D07B681B689F
S31520000D805B68FA68D318FB60FB68DBB21800BD46C7
S31520000D9004B080BD80B584B000AF786039607B68D0
S31520000DA01A690E23FB181A70FFF7B4FB3B681A6901
S31520000DB00D23FB181A703B681B689B68D9B20C235D
S31520000DC0FB180D22BA1812788A181A70FFF7A2FBA0
S31520000DD00F23FB1800221A700E23FA180D23FB1876
S31520000DE012781B789A420BD30E23FA180C23FB1881
S31520000DF012781B789A4203D80F23FB1801221A7007
S31520000E000F23FB181B781800BD4604B080BDC046D2
S31520000E1090B583B000AF78600A00FB1C1A707B681F
S31520000E204022DA607B6814221A617B681C6A7B6820
S31520000E309A68012359427B681800A047FB1C1B783F
S31520000E40002B07D07B681C6A7B689A687B68012127
S31520000E501800A047C046BD4603B090BD90B587B0E8
S31520000E6000AFF860B9607A60FB681B681722BC186F
S31520000E7001211800FFF774FF03002370FFF74AFBD8
S31520000E80BB681B681622BC1800211800FFF768FFF4
S31520000E9003002370FFF73EFB7B68DB68D9B27B68D3
S31520000EA01B685B68DAB21523FB188A181A707B68F0
S31520000EB0DA681423FB181A70FFF72CFB7B681A6973
S31520000EC01323FB181A707B681B69D9B27B681B68D1
S31520000ED09B68DAB21223FB188A181A701523FB189E
S31520000EE01B787D2B0FD9FB68180000F00FFBBA6822
S31520000EF0FB6811001800FFF783FE7B6800211800AD
S31520000F00FFF786FF13E01423FB181B78032B0ED85C
S31520000F10BB68180000F0FAFABA68FB6811001800DE
S31520000F20FFF76EFE7B6801211800FFF771FFFFF7C0
S31520000F30F1FA1523FB181B785A1C1623FB181B786D
S31520000F409A421AD1BB681A687B6811001800FFF70D
S31520000F5021FF031E31D07B685B685A427B685A604A
S31520000F60FFF7D8FA1623FB181A787B681B685B688C
S31520000F70D31A5A1E7B68DA601FE01423FB181B78ED
S31520000F805A1E1723FB181B789A4216D1FB681A683B
S31520000F907B6811001800FFF7FDFE031E0DD07B684D
S31520000FA05B685A427B685A60FFF7B4FA1723FB182E
S31520000FB01B7801331A007B68DA60FFF7ABFA13233C
S31520000FC0FB181B78022B05D87B689B685A427B68E6
S31520000FD09A6009E01223FB181B783D2B04D97B6805
S31520000FE09B685A427B689A60C046BD4607B090BD52
S31520000FF090B585B000AF78603960012000F084F9A3
S3152000100003001A007B685A717B685A790F23FB18F4
S315200010101A700F23FB181B78DBB2022B15D17B68C5
S315200010201B681B69012B10D97B681B681C6A7B68AF
S315200010301B68012200211800A0477B681B68DA691B
S315200010407B681B681800904720E00F23FB181B784D
S31520001050DBB2082B1AD17B681B681A697B681B6870
S315200010601B689B68D318402B10D87B681B681C6AAA
S315200010707B68186801235B421A000021A0477B6821
S315200010801B68DA697B681B6818009047002000F00F
S315200010903BF903001A003B685A713B685A790F23C3
S315200010A0FB181A700F23FB181B78DBB2022B15D105
S315200010B03B681B681B69012B10D93B681B681C6A9F
S315200010C03B681B68012200211800A0473B681B686B
S315200010D0DA693B681B681800904720E00F23FB184D
S315200010E01B78DBB2082B1AD13B681B681A693B6850
S315200010F01B681B689B68D318402B10D83B681B685D
S315200011001C6A3B68186801235B421A000021A0472D
S315200011103B681B68DA693B681B6818009047C04625
S31520001120BD4605B090BDC04680B584B000AFF8601E
S31520001130B9607A607A68B968FB681800FFF78EFE96
S315200011400520FFF70DFA0520FFF70AFABA68FB68B3
S3152000115011001800FFF74CFFC046BD4604B080BD05
S3152000116090B58BB000AF1823FB180C4A13CA13C3D3
S315200011701188198092789A703B1D094A13CA13C3A5
S3152000118003CA03C33A1D1823FB1811001800FFF7E2
S3152000119009FDC046BD460BB090BDC046501C002080
S315200011A0601C002080B584B000AF78600023FB600F
S315200011B020E07B68DB68DAB27B681968FB68043359
S315200011C05B00CB1804331B78D318D8B27B681B6915
S315200011D0DAB27B681968FB6804335B00CB180533E9
S315200011E01B78D318DBB201221900FFF7F5FBFB6849
S315200011F00133FB607B681B681A68FB689A42D8D863
S31520001200C046BD4604B080BD80B584B000AF7860CE
S315200012100023FB6020E07B68DB68DAB27B68196814
S31520001220FB6804335B00CB1804331B78D318D8B281
S315200012307B681B69DAB27B681968FB6804335B003C
S31520001240CB1805331B78D318DBB200221900FFF721
S31520001250C3FBFB680133FB607B681B681A68FB686D
S315200012609A42D8D8C046BD4604B080BD80B582B06B
S3152000127000AF78607B681800FFF7C6FF7B68DA68E6
S315200012807B685B68D2187B68DA607B681A697B6842
S315200012909B68D2187B681A617B681800FFF782FF6B
S315200012A0C046BD4602B080BD80B584B000AFF860B0
S315200012B0B9607A60FB68BA685A60FB687A689A6097
S315200012C0C046BD4604B080BD80B500AF0B4B0C4A6E
S315200012D01A600A4B00229A80084B0A4ADA60074BAA
S315200012E000225A74054B00221A74044B00225A75A8
S315200012F0024B00221A75C046BD4680BD000C024036
S3152000130000550055AA00AA0080B586B000AF02009D
S31520001310FB1D1A701723FB18FF221A701623FB18C1
S3152000132001221A7036E0FB1D1B78012B03D11F4BBF
S315200013303B611F4BFB60FB1D1B78002B03D11D4B14
S315200013403B611D4BFB600023BB60FFF7FFF81623B4
S31520001350FB181A783B6910009847FB6898470300EA
S31520001360BB60BB68002B0ED0BB68144A944663440E
S315200013709A001623FB181B78D3185A1E1723FB181E
S315200013800F498A5C1A701623FB181A781623FB1845
S3152000139001321A701623FB181B78042BC3D9172386
S315200013A0FB181B781800BD4606B080BD111400201E
S315200013B0B5140020C51300205D140020FFFFFF3F59
S315200013C0841C002080B582B000AF78607B68022B39
S315200013D00CD002D8012B05D014E0032B0AD0042B05
S315200013E00CD00FE0094B10221A750BE0074B202278
S315200013F01A7507E0054B40221A7503E0034B80223D
S315200014001A75C046C046BD4602B080BD000C0240DB
S3152000141080B582B000AF78607B68022B0CD002D8F2
S31520001420012B05D014E0032B0AD0042B0CD00FE09F
S31520001430094B10225A750BE0074B20225A7507E0FC
S31520001440054B40225A7503E0034B80225A75C0464D
S31520001450C046BD4602B080BD000C024080B582B0B9
S3152000146000AF134AFB1C127C1A7000237B60FB1C06
S315200014701B780122134001D001237B60FB1C1B78C3
S315200014800222134001D002237B60FB1C1B7804221E
S31520001490134001D003237B60FB1C1B7808221340DA
S315200014A001D004237B607B681800BD4602B080BD56
S315200014B0000C024080B582B000AF134AFB1C527C60
S315200014C01A7000237B60FB1C1B780122134001D07D
S315200014D001237B60FB1C1B780222134001D00223D0
S315200014E07B60FB1C1B780422134001D003237B6006
S315200014F0FB1C1B780822134001D004237B607B68E9
S315200015001800BD4602B080BD000C024080B582B0F6
S3152000151000AF78607B681B790133DAB27B681A7179
S31520001520C046BD4602B080BD010000000C00000090
S315200015300400000004000000000100020100010177
S315200015400102010302000201020202030301030257
S315200015500000000000000000000000000000000065
S315200015600000000000000000000000000000000055
S315200015700000000000000000000000000000000045
S315200015800000000000000000000000000000000035
S3152000185000000000000000002C1500200000000001
S31520001860000000000C00000032000000A51100203E
S31520001870091200206D120020A91200207800000015
S31520001880040000001E00000000000001000200030A
S31520001890000400050006000700080009000A000BE6
S315200018A0000C000D000E000F001000110012001396
S315200018B0001400150016001700180019001A001B46
S315200018C0001C001D010001010102010301040105A4
S315200018D00106010701080109010A010B010C010D8E
S315200018E0010E010F0110011101120113011401153E
S315200018F00116011701180119011A011B011C011DEE
S315200019000200020102020203020402050206020785
S3152000191002080209020A020B020C020D020E020F35
S3152000192002100211021202130214021502160217E5
S3152000193002180219021A021B021C021D03000301CF
S31520001940030203030304030503060307030803092D
S31520001950030A030B030C030D030E030F03100311DD
S31520001960031203130314031503160317031803198D
S31520001970031A031B031C031D0000000000000000C7
S315200019800000000000000000000000000000000031
S315200019900000000000000000000000000000000021
S315200019A00000000000000000000000000000000011
S315200019B00000000000000000000000000000000001
S31520001BA000000000000000007C180020000000005B
S31520001BB0000000000200000019000000A51100200E
S31520001BC0091200206D120020A91200207C18002086
S31520001BD000000000000000007A000000190000004C
S31520001BE0A5110020091200206D120020A912002044
S31520001BF0A81B002000000000CC1B002000000000D5
S31520001C00F01B0020F81B0020581800207C02002022
S31520001C103C020020440200204C02002054020020F6
S31520001C205C020020640200206C0200207402002066
S31520001C30520A00205C0A0020660A0020700A002052
S31520001C407A0A0020840A00208E0A0020980A0020A2
S31520001C5057656C636F6D6520546F2054686500006E
S31520001C6047726561746573742047616D652045769A
S31520001C7065723F003F065B4F666D7D077F67777C09
S31520001C8039DE79710104070E020508000306090FE3
S30920001C900A0B0C0DFC
S70520000000DA
