S01300002E2F44656275672F766572312E733139F0
S315200000000248854600F046F8FEE7C04600C00120BB
S3152000001080B500AF044B044A126818210A431A60BF
S31520000020C046BD4680BDC04600380240B0B500AFD0
S31520000030144B1B68180000F093FD134B1B68180027
S3152000004000F07CFA114B1B68180000F089FD0E4B5E
S315200000501B68180000F072FA0D4B1B68180000F0A0
S315200000607FFD094B1B68180000F068FA054B1B68DA
S315200000701C6A044B1B68012201211800A047C046B8
S31520000080BD46B0BD28160020600F00202C1600208B
S315200000903016002080B500AFFFF7BAFF00F06CFAEB
S315200000A000F03CFE00F00CFC00F036FCFFF7BEFF33
S315200000B0064B1B689B00180000F040FA034B1B6898
S315200000C09B00180000F03AFAF8E7C046600F0020BF
S315200000D080B582B000AF0200FB1D1A700749074B9E
S315200000E01B7DDAB2FB1D1B781343DBB204221343BC
S315200000F0DBB20B75C046BD4602B080BD0010024083
S3152000010080B582B000AF0200FB1D1A700A4A0A4B66
S315200001101B7DDBB2D8B2FB1D1B78DB43D9B2031C97
S315200001200B40DBB2191C04230B43DBB2DBB2137585
S31520000130C046BD4602B080BD0010024080B500AF6B
S31520000140C04600F061F90300DBB25BB2002BF8DB9E
S31520000150082000F0D9F9012000F00AF9022000F069
S31520000160EDF9C046BD4680BD80B582B000AF020025
S31520000170FB1D1A70C04600F047F90300DBB25BB2E4
S31520000180002BF8DB082000F0BFF9FB1D1B78022BA3
S315200001900CD002DC012B05D014E0032B0AD0042B53
S315200001A00CD00FE0FB1D00221A700BE0FB1D08226D
S315200001B01A7007E0FB1D04221A7003E0FB1D0C22B7
S315200001C01A70C046FB1D1B7830221343DBB2180081
S315200001D000F0CEF8272000F097F9C046BD4602B0C1
S315200001E080BDC04680B582B000AF0200FB1D1A70EC
S315200001F0C04600F009F90300DBB25BB2002BF8DB46
S31520000200082000F081F9FB1D1B78082B24D89A00C2
S31520000210194BD3181B689F46FB1D00221A701BE042
S31520000220FB1D04221A7017E0FB1D02221A7013E030
S31520000230FB1D06221A700FE0FB1D01221A700BE02F
S31520000240FB1D03221A7007E0FB1D05221A7003E02E
S31520000250FB1D07221A70C046FB1D1B78082213437C
S31520000260DBB2180000F084F8272000F04DF9C046D4
S31520000270BD4602B080BDC0463416002080B582B08F
S3152000028000AF0200FB1D1A70C04600F0BDF8030047
S31520000290DBB25BB2002BF8DB082000F035F9FB1D42
S315200002A01B78022B0CD002DC012B05D014E0032B8B
S315200002B00AD0042B0CD00FE0FB1D00221A700BE095
S315200002C0FB1D02221A7007E0FB1D01221A7003E0B3
S315200002D0FB1D03221A70C046FB1D1B780422134304
S315200002E0DBB2180000F044F8272000F00DF9C046D4
S315200002F0BD4602B080BDC04680B584B000AF7860F0
S3152000030039607B68013BFB603B68022B02D1FB68AE
S315200003104033FB60FB68DBB21A1C80235B4213432D
S31520000320DBB2DBB2180000F023F8C046BD4604B0AD
S3152000033080BDC04680B582B000AF0200FB1D1A709A
S31520000340C04600F061F80300DBB25BB2002BF8DB9D
S31520000350082000F0D9F8FB1D1B78180000F026F8BD
S315200003602B2000F0D1F8C046BD4602B080BDC04665
S3152000037080B582B000AF0200FB1D1A70C04600F0A7
S3152000038043F80300DBB25BB2002BF8DB0120FFF75A
S31520000390B7FE0220FFF7B4FEFB1D1B78180000F005
S315200003A01BF8C046BD4602B080BDC04680B582B0AF
S315200003B000AF0200FB1D1A700120FFF789FE022004
S315200003C0FFF79EFEFB1D1B78180000F005F8C046BF
S315200003D0BD4602B080BDC04680B582B000AF0200E7
S315200003E0FB1D1A704020FFF773FE064AFB1D1B7883
S315200003F0537500F063F84020FFF782FEC046BD46E5
S3152000040002B080BD0010024090B583B000AF0B4B08
S315200004100B4A1A600120FFF773FE0220FFF758FEF1
S31520000420FC1D00F031F803002370044B054A1A60C6
S31520000430FB1D1B781800BD4603B090BD001002407E
S31520000440555500005555555590B583B000AF0B4B0B
S315200004500B4A1A600120FFF73BFE0220FFF738FE09
S31520000460FC1D00F011F803002370044B054A1A60A6
S31520000470FB1D1B781800BD4603B090BD001002403E
S31520000480555500005555555580B582B000AF4020D2
S31520000490FFF71EFE00F012F800F010F8064AFB1DCA
S315200004A0527C1A704020FFF72BFEFB1D1B7818008C
S315200004B0BD4602B080BDC0460010024080B500AFE8
S315200004C00B4B00221A600A4B29225A60084B002245
S315200004D09A60074B05221A60C046054B1B68002B05
S315200004E0FBD0034B00221A60C046BD4680BDC046E5
S315200004F010E000E080B500AFFFF7E0FFFFF7DEFF7A
S31520000500C046BD4680BDC04680B584B000AF786089
S315200005100023FB600AE0FFF7D1FFFFF7CFFFFFF7CD
S31520000520CDFFFFF7CBFFFB680133FB60FA687B68E2
S315200005309A42F0D3C046BD4604B080BD80B584B093
S3152000054000AF78600CE00023FB6005E00120FFF798
S31520000550DBFFFB680133FB60FB68064A9342F5DD4F
S315200005607B685A1E7A60002BEDD1C046BD4604B08A
S3152000057080BDC046E703000080B500AF024B034AAA
S315200005801A60C046BD4680BD0010024055555555DF
S3152000059080B584B000AF0200FB1D1A70124A0F23EB
S315200005A0FB18127D1A700F23FB180F22BA18127827
S315200005B004218A431A70FB1D1B781A1C04239A43B4
S315200005C01300DAB20F23FB181B781343DAB20F237A
S315200005D0FB181A70044A0F23FB181B781375C046A4
S315200005E0BD4604B080BDC0460010024080B584B030
S315200005F000AF0200FB1D1A70114A0F23FB18127D53
S315200006001A700F23FB180F22BA18127804218A4376
S315200006101A70FB1D1B78DB43D9B20F23FB181A78FF
S315200006200B1C1340DAB20F23FB181A70044A0F234F
S31520000630FB181B781375C046BD4604B080BDC04666
S315200006400010024080B582B000AF0200FB1D1A7078
S31520000650FB1D1B78082B0CD002DC002B05D01AE0E2
S31520000660102B0DD0182B12D015E01820FFF7BEFF47
S3152000067011E01020FFF7BAFF0820FFF789FF0AE0F4
S315200006800820FFF7B3FF1020FFF782FF03E01820B2
S31520000690FFF77EFFC046C046BD4602B080BDC046BD
S315200006A080B582B000AF4020FFF7A0FF154B164A59
S315200006B01A600120FFF79AFF0220FFF769FFFFF774
S315200006C019FF4020FFF764FFFFF714FF0D4B5B7CFB
S315200006D0DAB2FB1D7F218A431A704020FFF786FF7E
S315200006E0FFF708FFFB1D1B78002B00D0E9E7C0466B
S315200006F04020FFF74DFF034B044A1A60C046BD4613
S3152000070002B080BD00100240555500005555555584
S3152000071080B584B000AF0200FB1D1A704020FFF7A1
S3152000072065FF1C4B1C4A1A600320FFF731FF02208D
S31520000730FFF72EFFFB1D1B781800FFF783FFFFF73F
S31520000740D9FE4020FFF724FFFFF7D4FE114A0F23DE
S31520000750FB18527C1A700F4B104A1A60FB1D1B782F
S315200007600822134004D00820FFF76CFFFFF798FFFC
S31520000770FB1D1B781022134004D01020FFF762FFC8
S31520000780FFF78EFF0F23FB181B781800BD4604B019
S3152000079080BDC046001002405555000055555555A0
S315200007A080B582B000AF0200FB1D1A70FB1D1B78BE
S315200007B01800FFF7ADFFFB1D1B781800FFF7A8FFF9
S315200007C003001800BD4602B080BDC04680B582B089
S315200007D000AF0200FB1D1A70BB1D0A1C1A70154AB9
S315200007E0FB1D1B785375BB1D1B781800FFF72AFFCE
S315200007F0FFF780FE4020FFF7CBFEFFF77BFE402071
S31520000800FFF7F4FEBB1D1B780822134004D00820F6
S31520000810FFF718FFFFF744FFBB1D1B78102213407C
S3152000082004D01020FFF70EFFFFF73AFFC046BD4663
S3152000083002B080BD0010024080B582B000AF020039
S31520000840FB1D1A70BB1D0A1C1A704020FFF7CEFE36
S31520000850BB1D1B781800FFF7F5FE0120FFF798FE59
S315200008600220FFF7C3FEBB1D1A78FB1D1B78110063
S315200008701800FFF7ABFFC046BD4602B080BDC0469C
S3152000088080B582B000AF0200FB1D1A70BB1D0A1C8A
S315200008901A704020FFF7AAFEBB1D1B781800FFF731
S315200008A0D1FE0320FFF7A2FEBB1D1A78FB1D1B7885
S315200008B011001800FFF78AFFC046BD4602B080BD72
S315200008C080B500AF4020FFF763FE0A20FFF71CFE2D
S315200008D07820FFF78BFE1E20FFF730FE2020FFF743
S315200008E057FE18213E20FFF7CBFF18213F20FFF7A8
S315200008F0C7FF1821C020FFF7C3FF18214020FFF7AC
S31520000900BFFF1821B820FFF7BBFF0020FFF79AFE94
S31520000910C046BD4680BDC04680B582B000AFFB1D37
S3152000092000221A7023E0FB1D1B78482252421343F3
S31520000930DBB218211800FFF7A3FF18214020FFF78C
S315200009409FFFBB1D00221A7008E018210020FFF728
S3152000095073FFBB1D1A78BB1D01321A70BB1D1B7895
S315200009603F2BF2D9FB1D1A78FB1D01321A70FB1D95
S315200009701B78072BD7D9C046BD4602B080BDC046DE
S3152000098090B587B000AF040008001100FB1D221CA3
S315200009901A70BB1D021C1A707B1D0A1C1A70FB1DC7
S315200009A01B78002B00D1C9E0BB1D1B78002B00D182
S315200009B0C4E0FB1D1B78802B00D9BFE0BB1D1B7834
S315200009C0402B00D9BAE0BB1D1B78013B002B00DA77
S315200009D00733DB103B61BB1D1B78013B594A134093
S315200009E004D5013B0822524213430133072B2CD84E
S315200009F09A00554BD3181B689F461723FB180122D4
S31520000A001A7022E01723FB1802221A701DE0172302
S31520000A10FB1804221A7018E01723FB1808221A70F4
S31520000A2013E01723FB1810221A700EE01723FB1869
S31520000A3020221A7009E01723FB1840221A7004E0BE
S31520000A401723FB1880221A70C0467B1D1B78002BAB
S31520000A5006D11723FB181722BA181278D2431A7018
S31520000A60FB1D1B78402B09D91623FB1810221A7060
S31520000A70FB1DFA1D1278413A1A7008E01623FB185E
S31520000A8008221A70FB1DFA1D1278013A1A70FB1DF6
S31520000A901B7840221343DAB21623FB181B78190061
S31520000AA01000FFF7EDFE3B69DBB2482252421343AA
S31520000AB0DAB21623FB181B7819001000FFF7E0FEA8
S31520000AC00F23FC181623FB181B781800FFF768FE67
S31520000AD003002370FB1D1B7840221343DAB2162332
S31520000AE0FB181B7819001000FFF7CAFE7B1D1B7828
S31520000AF0002B0AD01723FB181722B9180F22BA1871
S31520000B00097812780A431A7009E01723FB1817226E
S31520000B10BA180F217918127809780A401A70162304
S31520000B20FB181A781723FB181B7811001800FFF7FB
S31520000B3083FE18213F20FFF7A3FE00E0C046BD46F6
S31520000B4007B090BD070000805816002080B584B0FD
S31520000B5000AFF860B9607A60C046BD4604B080BD7B
S31520000B6080B584B000AF78600023FB6020E07B680E
S31520000B70DB68DAB27B681968FB6804335B00CB1844
S31520000B8004331B78D318D8B27B681B69DAB27B682A
S31520000B901968FB6804335B00CB1805331B78D31820
S31520000BA0DBB201221900FFF7EBFEFB680133FB6085
S31520000BB07B681B681A68FB689A42D8D8C046BD462F
S31520000BC004B080BD80B584B000AF78600023FB60A0
S31520000BD020E07B68DB68DAB27B681968FB6804333F
S31520000BE05B00CB1804331B78D318D8B27B681B69FB
S31520000BF0DAB27B681968FB6804335B00CB180533CF
S31520000C001B78D318DBB200221900FFF7B9FEFB6868
S31520000C100133FB607B681B681A68FB689A42D8D848
S31520000C20C046BD4604B080BD80B582B000AF7860B6
S31520000C307B68DA687B685B68D2187B68DA607B68D9
S31520000C401A697B689B68D2187B681A61C046BD46C4
S31520000C5002B080BD80B582B000AF78607B68180096
S31520000C60FFF7B0FF7B681800FFF7DEFF7B68DB68C5
S31520000C70022B07D87B685B685A427B685A607B6880
S31520000C800322DA607B68DA687B681B685B68D318A6
S31520000C90802B0BD97B685B685A427B685A607B68DD
S31520000CA01B685B688022D21A7B68DA607B681B69C6
S31520000CB0022B07D87B689B685A427B689A607B68C0
S31520000CC003221A617B681A697B681B689B68D318A4
S31520000CD0402B0BD97B689B685A427B689A607B685D
S31520000CE01B689B684022D21A7B681A617B681800B1
S31520000CF0FFF736FFC046BD4602B080BD80B584B042
S31520000D0000AFF860B9607A60FB68BA685A60FB6821
S31520000D107A689A60C046BD4604B080BD80B500AFF3
S31520000D200B4B0C4A1A600A4B00229A80084B0A4A3F
S31520000D30DA60074B00225A74054B00221A74044BC2
S31520000D4000225A75024B00221A75C046BD4680BD48
S31520000D50000C024000550055AA00AA0080B586B0B6
S31520000D6000AF0200FB1D1A701723FB18FF221A7012
S31520000D701623FB1801221A7036E0FB1D1B78012B67
S31520000D8003D11F4B3B611F4BFB60FB1D1B78002BC8
S31520000D9003D11D4B3B611D4BFB600023BB60FFF75E
S31520000DA0A9FB1623FB181A783B6910009847FB68A5
S31520000DB098470300BB60BB68002B0ED0BB68144A63
S31520000DC0944663449A001623FB181B78D3185A1EA0
S31520000DD01723FB180F498A5C1A701623FB181A78FA
S31520000DE01623FB1801321A701623FB181B78042BC6
S31520000DF0C3D91723FB181B781800BD4606B080BD43
S31520000E00650E0020090F0020190E0020B10E0020CB
S31520000E10FFFFFF3F8816002080B582B000AF7860C4
S31520000E207B68022B0CD002D8012B05D014E0032BB3
S31520000E300AD0042B0CD00FE0094B10221A750BE0B8
S31520000E40074B20221A7507E0054B40221A7503E04E
S31520000E50034B80221A75C046C046BD4602B080BDEF
S31520000E60000C024080B582B000AF78607B68022B10
S31520000E700CD002D8012B05D014E0032B0AD0042B6A
S31520000E800CD00FE0094B10225A750BE0074B20229D
S31520000E905A7507E0054B40225A7503E0034B802222
S31520000EA05A75C046C046BD4602B080BD000C024001
S31520000EB080B582B000AF134AFB1C127C1A70002347
S31520000EC07B60FB1C1B780122134001D001237B6031
S31520000ED0FB1C1B780222134001D002237B60FB1CE3
S31520000EE01B780422134001D003237B60FB1C1B7854
S31520000EF00822134001D004237B607B681800BD467E
S31520000F0002B080BD000C024080B582B000AF134A0B
S31520000F10FB1C527C1A7000237B60FB1C1B78012271
S31520000F20134001D001237B60FB1C1B780222134057
S31520000F3001D002237B60FB1C1B780422134001D0C6
S31520000F4003237B60FB1C1B780822134001D004235B
S31520000F507B607B681800BD4602B080BD000C024055
S31520000F600A0000000C00000004000000040000003D
S31520000F700001000201000101010201030200020139
S31520000F800202020303010302000000000000000029
S31520000F90000000000000000000000000000000002B
S31520000FA0000000000000000000000000000000001B
S31520000FB0000000000000000000000000000000000B
S31520000FC000000000000000000000000000000000FB
S31520001290640F002000000000000000006400000031
S315200012A001000000610B0020C50B0020550C00201A
S315200012B0FD0C0020900100000A000000280000001C
S315200012C000000001000200030004000500060007DC
S315200012D000080009010001010102010301040105C2
S315200012E001060107010801090200020102020203A8
S315200012F0020402050206020702080209030003018E
S315200013000302030303040305030603070308030973
S31520001310040004010402040304040405040604076B
S315200013200408040905000501050205030504050551
S315200013300506050705080509060006010602060337
S31520001340060406050606060706080609070007011D
S315200013500702070307040705070607070708070903
S3152000136008000801080208030804080508060807FB
S3152000137008080809090009010902090309040905E1
S3152000138009060907090809090A000A010A020A03C7
S315200013900A040A050A060A070A080A090B000B01AD
S315200013A00B020B030B040B050B060B070B080B0993
S315200013B00C000C010C020C030C040C050C060C078B
S315200013C00C080C090D000D010D020D030D040D0571
S315200013D00D060D070D080D090E000E010E020E0357
S315200013E00E040E050E060E070E080E090F000F013D
S315200013F00F020F030F040F050F060F070F080F0923
S31520001400100010011002100310041005100610071A
S315200014101008100911001101110211031104110500
S3152000142011061107110811091200120112021203E6
S3152000143012041205120612071208120913001301CC
S3152000144013021303130413051306130713081309B2
S3152000145014001401140214031404140514061407AA
S315200014601408140915001501150215031504150590
S315200014701506150715081509160016011602160376
S31520001480160416051606160716081609170017015C
S315200014901702170317041705170617071708170942
S315200014A0180018011802180318041805180618073A
S315200014B01808180919001901190219031904190520
S315200014C019061907190819091A001A011A021A0306
S315200014D01A041A051A061A071A081A091B001B01EC
S315200014E01B021B031B041B051B061B071B081B09D2
S315200014F01C001C011C021C031C041C051C061C07CA
S315200015001C081C091D001D011D021D031D041D05AF
S315200015101D061D071D081D091E001E011E021E0395
S315200015201E041E051E061E071E081E091F001F017B
S315200015301F021F031F041F051F061F071F081F0961
S315200015402000200120022003200420052006200759
S31520001550200820092100210121022103210421053F
S315200015602106210721082109220022012202220325
S31520001570220422052206220722082209230023010B
S3152000158023022303230423052306230723082309F1
S3152000159024002401240224032404240524062407E9
S315200015A01A082409250025012502250325042505D9
S315200015B025062507250825092600260126022603B5
S315200015C0260426052606260726082609270027019B
S315200015D02702270327042705270627072708270981
S315200015E0B4120020000000000000000019000000D6
S315200015F00F000000610B0020C50B0020550C0020B9
S31520001600FD0C0020B41200200000000000000000A5
S315200016107D00000023000000610B0020C50B002088
S31520001620550C0020FD0C002090120020E015002013
S315200016300416002058020020180200202002002054
S31520001640280200203002002038020020400200201C
S315200016504802002050020020FA090020040A002037
S315200016600E0A0020180A0020220A00202C0A002038
S31520001670360A0020400A00203F065B4F666D7D0734
S315200016807F67777C39DE79710104070E0205080031
S30D200016900306090F0A0B0C0DDD
S70520000000DA
